:020000040800F2
:1000000030A60020B5070008B9050008BB050008A8
:10001000BF050008C3050008C70500080000000070
:10002000000000000000000000000000CB050008F8
:10003000CD05000800000000CF050008D10500082C
:10004000CF070008CF070008CF070008CF07000838
:10005000CF070008CF070008CF070008CF07000828
:10006000CF070008CF070008CF070008CF07000818
:10007000CF070008CF070008CF070008CF07000808
:10008000CF070008CF070008CF070008CF070008F8
:10009000CF070008CF070008CF070008CF070008E8
:1000A000CF070008CF070008CF070008CF070008D8
:1000B00087AB00080B930008B38C0008CF0700083B
:1000C000CF070008CF070008CF070008CF070008B8
:1000D000CF0700082F2D00089F8A0008CF070008CF
:1000E000CF070008CF070008CF070008CF07000898
:1000F000CF070008CF070008CF070008CF07000888
:10010000CF070008CF070008CF070008CF07000877
:10011000CF070008CF070008CF070008CF07000867
:10012000CF070008CF070008CF070008CF07000857
:1001300000F002F800F0B0F80AA090E8000C824449
:100140008344AAF10107DA4501D100F0A5F8AFF226
:10015000090EBAE80F0013F0010F18BFFB1A43F0A5
:100160000103184774F0000094F000000A444FF0B7
:10017000000C10F8013B13F0070408BF10F8014B06
:100180001D1108BF10F8015B641E05D010F8016B4B
:10019000641E01F8016BF9D113F0080F1EBF10F8AF
:1001A000014BAD1C0C1B09D16D1E58BF01F801CBD2
:1001B000FAD505E014F8016B01F8016B6D1EF9D555
:1001C0009142D6D37047000000230024002500266A
:1001D000103A28BF78C1FBD8520728BF30C148BFAA
:1001E0000B6070476E290BF0B38570290BF04184CA
:1001F00066290DF0038365290DF0008367290DF052
:10020000FD826129AFF3008003681B0A28BF41F01B
:10021000800169290BF0B28364290BF0AF83752943
:100220000BF0AC836F290BF0AB8678290BF00D84B3
:10023000E9290BF04586E4290BF04286F5290BF0FD
:100240003F86EF290BF0A886F8290BF00C84036891
:10025000DB0928BF41F0800163290BF0B4857329C5
:100260000BF0B985E3290CF0FD80F3290CF0028135
:10027000002070471FB50CF057F904000020002142
:100280000CF036FE401C6060002000210CF01AFECD
:10029000E0601FBD10B510BD0CF018F91146FFF756
:1002A000E9FF00F009F80CF0F1F903B4FFF7F2FFF1
:1002B00003BC02F0E1FC00001CB502F073FC4FF43B
:1002C000A06000F097FA4FF4165002F0E4FC4FF4EF
:1002D000E13008F05BFC874841684820884704F01B
:1002E00082FB02F0DBFE08F097FB02F0AFFE08F0A5
:1002F0008CFD02F061FD09F091F841F61F4140F2DA
:10030000CF7008F0D5FF4FF478407B49088018E0A3
:100310007AA010210B46C822CDE9001082211E20B0
:1003200008F03AFBC82002F07AFC4FF6FF709223E7
:10033000EF22822100901E2008F063F8C82002F00E
:100340006EFC02F062FE0028E2D14FF6FF7004F06E
:10035000F8FA6DA010210B46C822CDE90010322119
:100360001E2008F019FB6CA00C210B46C822CDE919
:10037000001064211E2008F00FFB69A010210B461D
:10038000C822CDE9001078213C2008F005FB68A0C8
:1003900010210B46C822CDE900108C213C2008F02A
:1003A000FBFA66A010210B46C822CDE90010A0215F
:1003B0003C2008F0F1FA63A010210B46C822CDE9D9
:1003C0000010B4213C2008F0E7FA60A010210B4691
:1003D000C822CDE9001011463C2008F0DDFA18E0F3
:1003E0005DA010210B46C822CDE9001082213C20DF
:1003F00008F0D2FAC82002F012FC4FF6FF709223E8
:10040000EF22822100903C2007F0FBFFC82002F081
:1004100006FC09F09DF80028E2D109F02EF967E00A
:10042000514809F00DF900285FD14F4981F82000AB
:10043000084610212023EF22CDE90010C821A0207A
:1004400008F0AAFA49494A4802F0B3FD4648007844
:10045000312803D101204749087002E000204549B6
:100460000870102002230090414802787821A020D3
:1004700008F0E9F91020022300903C4802788C2112
:10048000A02008F0E0F90A21002002F0F8FC3A4927
:100490000880002010210423CDE90010364802888E
:1004A000A021962008F019FA0A21012002F0E7FCA9
:1004B00032490880002010210423CDE900102F4884
:1004C0000288B421962008F008FA2A4800782B49BF
:1004D0000988CDE900102848038824480278244878
:1004E000017827A00BF0D8F902E0642002F073FB3A
:1004F00096E70000FC0000203400002044485431FE
:1005000031204572726F72004D696E6953746D20AF
:1005100053544D333200000053656E64203A00009E
:1005200074656D70657261747572653A00000000E3
:1005300068756D69646974793A0000004D51323A0A
:10054000000000004D51373A00000000526563651D
:100550006976653A000000004E524632344C303124
:10056000204572726F720000FA0100203F000020E7
:100570003E0000203D0000204200002044000020FA
:10058000303030313A253032643B303030323A2529
:100590003032643B303030333A253034643B3030D5
:1005A00030343A253034643B303030353A25303100
:1005B000643B0D0A00000000704700BFFEE700BF6B
:1005C000FEE700BFFEE700BFFEE7704770477047D9
:1005D000704700000CB50020019000906C48006846
:1005E00040F480306A49086000BF6948006800F440
:1005F000003000900198401C0190009818B90198B3
:10060000B0F5A06FF1D16248006800F4003010B17D
:100610000120009001E0002000900098012843D1C3
:100620005C48006840F010005A49086008460068BD
:1006300020F0030008600846006840F002000860EF
:100640005348406852494860084640684860084638
:10065000406840F4806048600846406820F47C10A0
:1006600048600846406840F4E81048600846006862
:1006700040F08070086000BF4548006800F00070DE
:100680000028F9D04248406820F003004049486003
:100690000846406840F00200486000BF3C4840689F
:1006A00000F00C000828F9D10CBD10B5FFF792FF3F
:1006B00010BD10B53648006840F0010034490860AC
:1006C0000846406834490840314948600846006897
:1006D000324908402E4908600846006820F480200E
:1006E00008600846406820F4FE0048604FF41F0090
:1006F0008860FFF7DAFF4FF000602949086010BDFD
:1007000010B5002100200022214B5B6803F00C0192
:1007100021B1042906D0082928D107E0214B224C19
:10072000236027E01F4B204C236023E0184B5B68BD
:1007300003F47010164B5B6803F48032022303EB62
:10074000904022B9194B4343174C23600DE0104BE6
:100750005B6803F4003323B1144B4343124C236012
:1007600003E0104B4343104C236003E00D4B0E4C51
:10077000236000BF00BF064B5B68C3F303130C4C40
:10078000E15C094B1B68CB40074C236010BD0000A7
:1007900000100240002002400000FFF8FFFFF6FEBC
:1007A00008ED00E000127A000000002000093D0082
:1007B000040000200948804709480047FEE7FEE79B
:1007C000FEE7FEE7FEE7FEE7FEE7FEE7FEE7FEE701
:1007D00004480549054A064B70470000B306000867
:1007E0003101000830A0002030A6002030A20020F7
:1007F00030A2002031490143314A1160704770B581
:10080000002100230F22C47804B32D4C246804F483
:10081000E064C4F5E064210AC1F10403CA404478ED
:1008200004FA03F18478144021430901254C067829
:10083000A155047804F01F050124AC4005786D1122
:10084000AD0005F1E025C5F8004109E0047804F0A9
:100850001F050124AC401C4D0678761145F8264052
:1008600070BD1A4A0A400243154B1B1F1A6070479D
:1008700039B1134A121D12680243114B1B1D1A6035
:1008800006E00F4A121D126882430D4B1B1D1A60B1
:100890007047042808D14FF0E021096941F00401B4
:1008A0004FF0E022116107E04FF0E021096921F0EB
:1008B00004014FF0E0221161704700000000FA05CA
:1008C0000CED00E000E400E080E100E080FFFF1FAD
:1008D00010B50446FA48844208D10121401500F0C1
:1008E0007FFE0021601500F07BFE17E0F548844292
:1008F00008D10121001500F073FE0021201500F041
:100900006FFE0BE0F048844208D10121C80300F0DB
:1009100067FE00214FF4004000F062FE10BD30B5CC
:100920000246002000235068E84C20400D790C68F6
:1009300044EA0524204350609068E54C2040D1E90A
:1009400002542C434D7944EA450420439060D06A18
:1009500020F470000C7C641EE4B2234340EA035090
:10096000D06230BD00210160017141718160C160C0
:1009700001210174704721B1826842F00102826056
:1009800003E0826822F001028260704721B1826830
:1009900042F48072826003E0826822F48072826096
:1009A000704710B50023CBB21AB144681C434460B1
:1009B00002E044689C43446010BD816841F0080136
:1009C00081607047014600208A6802F008020AB17F
:1009D000012000E000207047816841F0040181603F
:1009E0007047014600208A6802F004020AB1012023
:1009F00000E00020704721B1826842F4A0028260CA
:100A000003E0826822F4A002826070470146002061
:100A10008A6802F480020AB1012000E000207047D9
:100A200010B50A4600210023416821F46041531E9D
:100A300041EA4331416010BD21B1426842F4006295
:100A4000426003E0426822F4006242607047F0B501
:100A500004460D4600200021092D11DDE068A5F1B6
:100A60000A0606EB4607072606FA07F18843A5F1B2
:100A70000A0606EB460603FA06F10843E0600CE0BE
:100A8000206905EB4507072606FA07F1884305EBC1
:100A9000450603FA06F108432061072A0FDA606B66
:100AA000561E06EB86071F2606FA07F18843561ED8
:100AB00006EB860605FA06F10843606322E00D2A7C
:100AC0000FDA206BD61F06EB86071F2606FA07F102
:100AD0008843D61F06EB860605FA06F10843206315
:100AE00010E0E06AA2F10D0606EB86071F2606FA63
:100AF00007F18843A2F10D0606EB860605FA06F11A
:100B00000843E062F0BD21B1826842F48012826045
:100B100003E0826822F48012826070470146C86C4C
:100B200080B2704766484C300068704721B1426817
:100B300042F48062426003E0426822F480624260D4
:100B4000704721B1426842F48052426003E042683B
:100B500022F48052426070470A460021816821F4E5
:100B6000E04111438160704721B1826842F4004244
:100B7000826003E0826822F400428260704721B103
:100B8000826842F40212826003E0826822F4021258
:100B900082607047014600208A6802F400120AB1A0
:100BA000012000E000207047F0B504461546002003
:100BB00000220026092911DDE068A1F10A0707EBF0
:100BC000470C072707FA0CF29043A1F10A0707EB3D
:100BD000470703FA07F21043E0600CE0206901EBDD
:100BE000410C072707FA0CF2904301EB410703FA87
:100BF00007F210432061A06BC0F30156EF1C06F111
:100C0000010CA7EB0C0707EB870C1F2707FA0CF268
:100C10009043EF1C06F1010CA7EB0C0707EB8707CD
:100C200001FA07F21043A063F0BD10B50A46002197
:100C30000023816B21F44011531E41EA035181636B
:100C400010BD08B5002300930090009B0B44009357
:100C5000009B1A6008BD08B5024600200090009273
:100C600001F12800009B184400900098006880B2B1
:100C700008BD0A4600214168164B194011434160E6
:100C800070474162826270470A460021416821F044
:100C90001F0111434160704740B10949083109689B
:100CA00041F40001064A0832116007E004490831A6
:100CB000096821F40001024A0832116070470000FF
:100CC0000024014000280140003C0140FFFEF0FFED
:100CD000FDF7F1FFFFFD3FFF0246002013680B40C8
:100CE0000BB1012000E000207047CA43026070474A
:100CF00070B502460020002300240B125568CEB2C6
:100D000005EA060415681D4015B10CB1012000E08C
:100D1000002070BD00220A12D34303607047000018
:100D200001684FF6FE7211400160002101604160D0
:100D30008160C1608D49884208D18C490839496871
:100D400041F00F01894A083A51608AE0874914311D
:100D5000884208D185490839496841F0F001834A41
:100D6000083A51607DE081492831884208D17F49A5
:100D70000839496841F470617C4A083A516070E072
:100D80007A493C31884208D178490839496841F4A8
:100D90007041764A083A516063E0744950318842A4
:100DA00008D172490839496841F470216F4A083AFC
:100DB000516056E06D496431884208D16B49083969
:100DC000496841F47001694A083A516049E067494D
:100DD0007831884208D165490839496841F0706125
:100DE000624A083A51603CE06149884206D1011FDD
:100DF000096841F00F01021F116032E05C491431B3
:100E0000884208D15A49091F096841F0F001584A3F
:100E1000121F116025E056492831884208D15449F3
:100E2000091F096841F47061514A121F116018E0EE
:100E30004F493C31884208D14D49091F096841F4A6
:100E400070414B4A121F11600BE0494950318842F2
:100E500007D14749091F096841F47021444A121F0C
:100E60001160704710B50022026847F6F0739A438C
:100E70000C6A8B6823430C6923434C6923438C69B8
:100E80002343CC6923434C6A23438C6A23431A438C
:100E90000260CB6843600B6883604B68C36010BD21
:100EA0000021016041608160C16001614161816137
:100EB000C161016241628162704721B1026842F002
:100EC0000102026004E002684FF6FE731A400260FD
:100ED00070471AB103680B43036002E003688B4359
:100EE00003607047416070470146486880B27047B0
:100EF00001460020002201F080531BB11C4B083B2F
:100F00001A6802E0194B083B1A6802EA01030BB1A8
:100F1000012000E00020704700F0805119B1144911
:100F2000091F086002E0114908394860704701460E
:100F30000020002201F080531BB10D4B083B1A68C2
:100F400002E00A4B083B1A6802EA01030BB10120D8
:100F500000E00020704700F0805119B10449091FDA
:100F6000086002E001490839486070470800024003
:100F70000804024010B50446CC48844208D101213F
:100F8000042000F02DFB0021042000F029FB46E0A6
:100F9000C748844208D10121082000F021FB00212C
:100FA000082000F01DFB3AE0C248844208D101212C
:100FB000102000F015FB0021102000F011FB2EE0A6
:100FC000BD48844208D10121202000F009FB002106
:100FD000202000F005FB22E0B848844208D101211E
:100FE000402000F0FDFA0021402000F0F9FA16E060
:100FF000B348844208D10121802000F0F1FA002199
:10100000802000F0EDFA0AE0AE48844207D10121C9
:10101000801500F0E5FA0021A01500F0E1FA10BDFE
:1010200010B50121084600F0DBFA0021012000F094
:10103000D7FA10BD2DE9F041024600250026002018
:1010400000230024002791F803C00CF00F0591F84D
:1010500003C00CF0100CBCF1000F03D091F802C0DB
:101060004CEA050591F800C0BCF1000F31D01468BE
:1010700000202BE04FF0010C0CFA00F3B1F800C097
:101080000CEA03069E4220D183004FF00F0C0CFAAD
:1010900003F7BC4305FA03FC4CEA040491F803C0CF
:1010A000BCF1280F06D14FF0010C0CFA00FCC2F87D
:1010B00014C00AE091F803C0BCF1480F05D14FF00D
:1010C000010C0CFA00FCC2F810C0401C0828D1D357
:1010D0001460B1F800C0BCF1FF0F34DD546800208B
:1010E0002EE000F1080C4FF0010808FA0CF3B1F8FB
:1010F00000C00CEA03069E4221D183004FF00F0C82
:101100000CFA03F7BC4305FA03FC4CEA040491F81B
:1011100003C0BCF1280F05D100F1080C08FA0CF847
:10112000C2F8148091F803C0BCF1480F07D100F158
:10113000080C4FF0010808FA0CF8C2F81080401CA7
:101140000828CED35460BDE8F0814FF6FF710180CE
:10115000022181700421C17070470246002093680B
:101160000B400BB1012000E0002070470146886869
:1011700080B2704702460020D3680B400BB10120BB
:1011800000E0002070470146C86880B270470161E6
:101190007047416170470AB1016100E041617047E9
:1011A000C16070474FF480320A438261816182617D
:1011B00082698269704702460020434B18684FF6E7
:1011C0008073184040EA021008433F4B1860704794
:1011D0003E49C8617047F0B50A460023002400214B
:1011E000002500F00046B6F1004F02D1364EF169FD
:1011F00001E0354E7168C0F3034583B200F4401638
:10120000B6F5401F08D121F070612F4E766826F0A8
:1012100070662D4F7E6012E000F48016B6F5801FD8
:1012200006D1032606FA05F4A14341F0706106E0F9
:10123000460D360103FA06F6B14341F0706122B162
:10124000460D360103FA06F6314300F00046B6F1CA
:10125000004F02D11C4EF16101E01B4E7160F0BDE8
:1012600030B500228B071C0F0F2303FA04F2164B34
:1012700008338C1053F824309343134C08348D10EA
:1012800044F8253023468C1053F824308C07240F63
:1012900000FA04F423430C4C08348D1044F8253034
:1012A00030BD0A49DC310860704700000008014089
:1012B000000C0140001001400014014000180140E2
:1012C000001C0140002001400000014000002042BD
:1012D000DF48006840F00100DD49086008464068CA
:1012E000DC490840DA49486008460068DA490840A5
:1012F000D74908600846006820F480200860084646
:10130000406820F4FE0048604FF41F00886070477A
:10131000CF49096821F48031CD4A1160114609682E
:1013200021F480211160B0F5803F03D0B0F5802F0B
:101330000ED106E0C649096841F48031C44A116003
:1013400007E0C349096841F4A021C14A116000E0E7
:1013500000BF00BF704710B50146002200230020E7
:101360004A11012A02D1BA4C236806E0022A02D1AE
:10137000B74C236A01E0B64C636A01F01F020124F6
:1013800094401C400CB1012000E0002010BD38B595
:10139000002000900024002500BF3120FFF7DBFF74
:1013A00005460098401C00900098B0F5A06F01D051
:1013B000002DF2D03120FFF7CEFF08B1012400E06C
:1013C0000024204638BD01460020A14A106820F0C4
:1013D000F80040EAC10010607047A04908607047FB
:1013E000024600209A4B586820F47C1042EA010320
:1013F0001843974B586070479849086670470146F4
:101400000020934A506820F0030008435060704762
:101410008F48406800F00C007047014600208C4A5D
:10142000506820F0F00008435060704701460020EB
:10143000874A506820F4E0600843506070470146D6
:101440000020834A506820F4605040EAC100506098
:10145000704729B17E4A527A02437D4B5A7204E0AA
:101460007B4A527A82437A4B5A7270477B49D83111
:101470000860704701460020754A506820F44040DB
:101480000843506070470021714A20321170704A41
:1014900082F82010012802D004280AD104E001219A
:1014A0006B4A2032117005E00521694A2032117023
:1014B00000E000BF00BF7047694908607047644999
:1014C000096A0143624A11627047654944390860FC
:1014D000704730B500210022002400235C4D6D6868
:1014E00005F00C0121B1042905D0082923D105E01C
:1014F0005C4D056022E05B4D05601FE0544D6D685A
:1015000005F47012524D6D6805F48034022505EB28
:1015100092421CB9544D554305600BE04C4D6D682B
:1015200005F400351DB1504D5543056002E04D4DA9
:101530005543056002E04B4D056000BF00BF444DC0
:101540006D6805F0F0010909484D6B5C0568DD40E8
:1015500045603F4D6D6805F4E061090A434D6B5CE1
:101560004568DD4085603A4D6D6805F46051C90AF3
:101570003E4D6B5C4568DD40C560354D6D6805F4DA
:101580004041890B3A4D6B5CC568B5FBF3F50561CD
:1015900030BD29B12E4A526902432D4B5A6104E0F5
:1015A0002B4A526982432A4B5A61704729B1284A13
:1015B00092690243264B9A6104E0254A926982436C
:1015C000234B9A61704729B1214AD2690243204BCB
:1015D000DA6104E01E4AD26982431D4BDA6170472A
:1015E00029B11B4AD2680243194BDA6004E0184A59
:1015F000D2688243164BDA60704729B1144A1269E7
:101600000243134B1A6104E0114A12698243104BE2
:101610001A61704712494039086070470F49C86421
:1016200070470B49C87170470948406A40F08070A4
:1016300007494862704701460020054A92680A40FF
:101640000AB1012000E0002070470149887270470C
:10165000001002400000FFF8FFFFF6FE00004242CB
:101660008004424200127A0000093D00140000206C
:101670002400002010B50446BE48844208D1012150
:101680008014FFF7ADFF0021A014FFF7A9FF16E0BB
:10169000B948844208D101210014FFF7AEFF0021B0
:1016A0002014FFF7AAFF0AE0B448844207D10121C1
:1016B000C013FFF7A2FF0021E013FFF79EFF10BD4C
:1016C00010B50022028802F441520B884C88234353
:1016D0008C882343CC8823430C8923434C892343A0
:1016E0008C892343CC8923431A430280838B4FF296
:1016F000FF74234083830B8A038210BD2DE9F04FD2
:1017000085B005460C464FF0000902274FF000084F
:101710004FF0010B0026B246A88B4FF24001084063
:10172000A88302202884B5F81C90A068022801D163
:1017300000BF38E0A08810B94FF0010B01E04FF076
:10174000020B8D48854200D100E000BF6846FFF7DC
:10175000C0FEDDF800A0E088B0F5007F0AD14FEAB6
:101760001A2000EB80004000A168B0FBF1F0401DA2
:1017700086B20BE04FEA4B10BAFBF0F000EB8000B2
:101780004000A168B0FBF1F0401D86B20A20B6FB14
:10179000F0F606F00108A6EB0800C0F34F074FF67D
:1017A000FF7000EA0828022F01DBFF2F02DD02276D
:1017B0004FF00008E08840EA080038432884A088F9
:1017C000A1890843618808432188084340F40060E8
:1017D00040EA0909A5F81C9005B0BDE8F08F00218A
:1017E000018041808180C180018141818181C181ED
:1017F0000721018270470021018041808180C180E2
:101800000221816000218181704721B1028842F06C
:101810004002028004E002884FF6BF731A40028043
:10182000704721B1828B42F48062828304E0828B14
:101830004FF6FF331A408283704730B500240023EF
:101840000C110125A540ABB21AB185881D438580D6
:1018500002E085889D43858030BD1AB183880B43A3
:10186000838002E083888B43838070478181704747
:101870000146888970474FF6FF62914204D0028882
:1018800042F48072028004E002884FF6FF631A403F
:101890000280704721B1828842F00402828004E015
:1018A00082884FF6FB731A408280704702884FF29D
:1018B000FF731A40028002880A4302807047018841
:1018C00041F480510180704721B1028842F40052F6
:1018D000028004E002884DF6FF731A4002807047D0
:1018E00002460020012901D0108B00E0908A704749
:1018F0000146088A7047B1F5804F04D1028842F44E
:101900008042028004E002884BF6FF731A40028096
:1019100070470246002013890B400BB1012000E004
:1019200000207047CA4302817047F0B5024600208C
:1019300000240023002501F00F070126BE40B4B2A9
:101940000B1101269E40B3B2968806EA030516895C
:10195000264016B10DB1012000E00020F0BD10B509
:10196000002201F00F040123A3409AB2D343038164
:1019700010BD00000030014000380040003C004035
:1019800010B50446FE48844208D10121C014FFF777
:1019900027FE0021E014FFF723FEC4E0B4F1804FDE
:1019A00008D101210846FFF728FE00210120FFF79A
:1019B00024FEB8E0F348844208D101210220FFF759
:1019C0001CFE00210220FFF718FEACE0EE48844226
:1019D00008D101210420FFF710FE00210420FFF7A9
:1019E0000CFEA0E0E948844208D101210820FFF75D
:1019F00004FE00210820FFF700FE94E0E448844242
:101A000008D101211020FFF7F8FD00211020FFF779
:101A1000F4FD88E0DF48844208D101212020FFF74F
:101A2000ECFD00212020FFF7E8FD7CE0DA4884424D
:101A300008D101214014FFF7D3FD00216014FFF706
:101A4000CFFD70E0D548844209D10121C804FFF7D9
:101A5000C7FD00214FF40020FFF7C2FD63E0D0482E
:101A6000844209D101210805FFF7BAFD00214FF496
:101A70008010FFF7B5FD56E0CA48844209D1012124
:101A80004805FFF7ADFD00214FF40010FFF7A8FD5A
:101A900049E0C548844208D101214020FFF7ADFD4F
:101AA00000214020FFF7A9FD3DE0C048844208D155
:101AB00001218020FFF7A1FD00218020FFF79DFD7F
:101AC00031E0BB48844208D101218015FFF795FD24
:101AD0000021A015FFF791FD25E0B648844209D109
:101AE00001210804FFF77CFD00214FF48030FFF74F
:101AF00077FD18E0B048844209D101214804FFF77E
:101B00006FFD00214FF40030FFF76AFD0BE0AB489A
:101B1000844208D101218804FFF762FD00214FF4BF
:101B20008020FFF75DFD10BD00220288944B984293
:101B30000ED0994B98420BD0B0F1804F08D0914B0A
:101B4000984205D0904B984202D0904B984204D1D5
:101B50004FF68F731A404B881A438D4B984207D02B
:101B60008C4B984204D04FF6FF431A40CB881A435F
:101B700002808B8883850B880385814B98420BD02C
:101B8000854B984208D08B4B984205D08A4B98429F
:101B900002D08A4B984201D10B7A038601238382BB
:101BA000704770B5002400220023058C4FF6FE76A6
:101BB00035400584028C8388048B4FF68F752C404A
:101BC000B51E2C400D882C43751E2A400D892A43D2
:101BD0004D882A436A4DA8420BD06F4DA84208D0C9
:101BE000744DA84205D0744DA84202D0734DA8424E
:101BF00013D14FF6F7752A404D892A434FF6FB75EE
:101C00002A408D882A434FF6FF652B404FF6FF553B
:101C10002B408D892B43CD892B4383800483CD8832
:101C20008586028470BD70B5002400220023058CD7
:101C30004FF6EF7635400584028C8388048B48F696
:101C4000FF752C404FF6FF452C400D884FF6FF7670
:101C500006EA05252C434FF6DF752A400D8906EA72
:101C600005152A434D8806EA05152A43444DA84226
:101C700002D0494DA8421DD14FF67F752A404D89AB
:101C80004FF6FF7606EA05152A434FF6BF752A4040
:101C90008D8806EA05152A434FF6FF352B404FF293
:101CA000FF752B408D8906EA85052B43CD8906EA11
:101CB00085052B4383800483CD880587028470BD0E
:101CC00070B5002400220023058C4FF6FF663540D6
:101CD0000584028C8388848B4FF68F752C404FF6D9
:101CE000FC752C400D882C434FF6FF552A400D897A
:101CF0004FF6FF7606EA05252A434D8806EA0525B4
:101D00002A431F4DA84202D0234DA8421DD14FF2B5
:101D1000FF752A404D894FF6FF7606EA05252A43CE
:101D20004FF6FF352A408D8806EA05252A434EF6F0
:101D3000FF752B404DF6FF752B408D8906EA051582
:101D40002B43CD8906EA05152B4383808483CD88F8
:101D50008587028470BD70B5002200230024058CA5
:101D60004EF6FF7635400584038C8488828B48F6D6
:101D7000FF752A404FF6FF452A400D8820E00000FD
:101D8000002C01400004004000080040000C00400E
:101D9000001000400014004000340140004C01409D
:101DA000005001400054014000180040001C004059
:101DB0000020004000400140004401400048014034
:101DC0004FF6FF7606EA05252A434DF6FF752B40B0
:101DD0000D8906EA05352B434D8806EA05352B4368
:101DE000FA4DA84202D0FA4DA84208D14BF6FF7531
:101DF0002C408D894FF6FF7606EA85152C438480AA
:101E00008283CD88A0F84050038470BD828B4FF24E
:101E1000FF331A408283828B4FF6FF7303EA01235C
:101E20001A4382837047F0B50C4615460022002104
:101E30000026078C4EF6FF7C07EA0C070784828B8E
:101E4000018C4FF6FF7707EA043640F6FF473A4029
:101E50004FF6FF7707EA05273A434FF6FF7707EA81
:101E600003373A43D94FB8420ED0D94FB8420BD0BE
:101E7000B0F1804F08D0D74FB84205D0D64FB84206
:101E800002D0D64FB84206D14DF6FF77394046F41E
:101E90008057394305E047F6FF57394044F48057EF
:101EA000394382830184F0BD828B4FF6F3731A406D
:101EB0008283828B0A4382837047F0B50C461546B5
:101EC000002200210026078C4FF6FF6C07EA0C0762
:101ED0000784828B018C4FF6FF7707EA04264FF6C2
:101EE0000C773A404FF6FF7707EA03172F433A4340
:101EF000B64FB8420ED0B64FB8420BD0B0F1804FBB
:101F000008D0B44FB84205D0B34FB84202D0B34F57
:101F1000B84206D14FF6FF57394046F4807739432F
:101F200005E04FF2FF57394044F48077394382830C
:101F30000184F0BD028B4FF2FF331A400283028B03
:101F40004FF6FF7303EA01231A4302837047F0B58B
:101F50000C461546002200210026078C4FF6EF7C28
:101F600007EA0C070784028B018C4FF6FF7707EA1C
:101F7000041640F6FF473A404FF6FF7707EA03376B
:101F80003A434FF6FF7707EA05273A438F4FB842A7
:101F90000ED08F4FB8420BD0B0F1804F08D08D4F8C
:101FA000B84205D08C4FB84202D08C4FB84206D10F
:101FB0004FF6DF77394046F01007394305E04FF61A
:101FC0005F77394044F01007394302830184F0BD44
:101FD000028B4FF6F3731A400283028B0A4302838B
:101FE0007047F0B50C46154600220021068C4FF6CE
:101FF000FE773E400684028B018C4FF60C76324011
:102000007E1C06EA03162E433243704EB0420ED0B9
:102010006F4EB0420BD0B0F1804F08D06D4EB04241
:1020200005D06D4EB04202D06C4EB04206D14FF694
:10203000FD76314044F00106314305E04FF6F57678
:10204000314044F00106314302830184F0BD70B594
:1020500005460C465D4885420ED05D4885420BD052
:10206000B5F1804F08D05B48854205D05A4885427B
:1020700002D05A48854200D100E000BF208850B904
:102080002389A28861882846FFF7ABFFE1882846AC
:10209000FFF79EFF25E0208804280AD12389A28823
:1020A00061882846FFF753FFE1882846FFF742FF83
:1020B00017E0208808280AD12389A2886188284649
:1020C000FFF7FBFEE1882846FFF7EEFE09E02389D3
:1020D000A28861882846FFF7A6FEE1882846FFF718
:1020E00095FE70BD2DE9F04105460C4600260127FE
:1020F000608808B9022600E00026A088012801D1E6
:10210000022700E001272088A0B92389A2886188DE
:102110002846FFF766FFE1882846FFF759FF238925
:102120003A4631462846FFF712FFE1882846FFF776
:1021300001FF13E02389A28861882846FFF707FF83
:10214000E1882846FFF7F6FE23893A4631462846BD
:10215000FFF747FFE1882846FFF73AFFBDE8F08127
:102160000A884B881A438B881A43CB881A430B89F9
:102170001A434B891A438B891A43A0F844207047AD
:102180004FF6FF71818000210180C1804180017282
:1021900070470021018041808180C180018141819F
:1021A0008181C181704700210180418001218180AE
:1021B0000021C18001817047002101804180818020
:1021C000C18001814181818170470000002C014064
:1021D000003401400004004000080040000C0040B2
:1021E00021B1028842F00102028004E002884FF629
:1021F000FE731A400280704731B1B0F8442042F4B7
:102200000042A0F8442005E0B0F84420C2F30E02DA
:10221000A0F8442070471AB183890B43838102E000
:1022200083898B43838170478182704741EA02032F
:10223000A0F8483070471AB183890B43838102E0CC
:1022400083898B438381704701894FF6F87211406F
:10225000018170470A46002101894FF68F731940AA
:1022600011430181704730B504460D46294620468A
:10227000FFF7F0FF208940F00700208130BD2DE9F5
:10228000F04104460D4616461F46602D06D13B46DA
:10229000012231462046FFF75AFE05E03B46012267
:1022A00031462046FFF79DFE29462046FFF7D2FF24
:1022B000208940F007002081BDE8F08130B50C4650
:1022C00000210189C9B24FF6FF7505EA03251543C0
:1022D00025432943018130BD2DE9F04105460E46D5
:1022E00017469846002443463A4631462846FFF7AB
:1022F000E5FF2C894FF6F870044044F007044FF6D0
:102300008F70044044F070042C81BDE8F081F0B57A
:1023100004460D4616461F463B4632462946204691
:10232000FFF7CCFF208940F480402081F0BD01857B
:10233000828270470A46002101884FF68F73194048
:10234000114301807047F0B50C4615461E4600212A
:10235000002200230189028B038C4FF6F877394065
:1023600021434FF6FC473A4040F201173A434FF6FB
:10237000DD773B404FF6FF7707EA06172F433B43D5
:10238000018102830384F0BD0A460021018B4FF6D0
:102390008F7319401143018370470A460021018B56
:1023A00048F6FF7319404FF6FF7303EA02231943FF
:1023B000018370470A460021818B4FF68F731940C5
:1023C0001143818370470A460021818B48F6FF73D1
:1023D00019404FF6FF7303EA0223194381837047C4
:1023E00021B1028842F08002028004E002884FF6A8
:1023F0007F731A400280704721B1828842F0040244
:10240000828004E082884FF6FB731A408280704716
:1024100021B1828842F00802828004E082884FF66F
:10242000F7731A408280704721B1828842F001021E
:10243000828004E082884FF6FE731A4082807047E3
:102440000A460021018B4FF6F773194011430183AF
:1024500070470A460021018B4FF2FF7319404FF677
:10246000FF7303EA02231943018370470A460021E0
:10247000818B4FF6F77319401143818370470A46E9
:102480000021818B4FF2FF7319404FF6FF7303EA6F
:1024900002231943818370470A460021018B4FF6BE
:1024A000FB7319401143018370470A460021018BD9
:1024B0004FF6FF3319404FF6FF7303EA0223194327
:1024C000018370470A460021818B4FF6FB73194048
:1024D0001143818370470A460021818B4FF6FF33F9
:1024E00019404FF6FF7303EA0223194381837047B3
:1024F0000A460021018B4FF67F7319401143018377
:1025000070470A460021018BC1F30E014FF6FF739D
:1025100003EA02231943018370470A460021818B95
:102520004FF67F7319401143818370470A4600219B
:10253000818BC1F30E014FF6FF7303EA02231943A7
:10254000818370470A460021018C4FF6FD731940C4
:102550001143018470470A460021018C4FF6F7733E
:1025600019401143018470470A460021018C4FF63F
:10257000DF7319404FF6FF7303EA02131943018416
:1025800070470A460021018C4FF67F7319404FF6C1
:10259000FF7303EA02131943018470470A460021BE
:1025A000018C4FF6FF5319404FF6FF7303EA0223E5
:1025B0001943018470470A460021018C4FF2FF73D2
:1025C00019404FF6FF7303EA022319430184704751
:1025D0000A460021018C4DF6FF7319404FF6FF7338
:1025E00003EA023319430184704730B50023012404
:1025F0008C40A3B2048C9C430484048C02FA01F541
:10260000ADB22C43048430BD30B5002304248C408B
:10261000A3B2048C9C430484048C02FA01F5ADB28D
:102620002C43048430BD70B50346002000241846B6
:10263000183001258D40ACB21D8CA5431D8409B115
:10264000082909D100EB6100056825F070050560D7
:102650000568154305600EE00D1FC5F34E052844BF
:10266000056825F4E045056005684FF6FF7606EA43
:1026700002263543056070BD21B1028842F0020296
:10268000028004E002884FF6FD731A400280704712
:1026900021B1028842F00402028004E002884FF671
:1026A000FB731A400280704721B1828842F0800299
:1026B000828004E082884FF67F731A4082807047E0
:1026C00002884FF6F7731A40028002880A4302809C
:1026D000704782884FF68F731A40828082880A433F
:1026E0008280704702894FF6F8731A40028102898E
:1026F0000A430281704702894FF67F731A400281B4
:1027000002890A430281704781847047818570473E
:10271000818670470187704781877047A0F8401015
:10272000704702884FF6FF431A40028002880A432E
:10273000028070470146888E70470146088F7047B7
:102740000146888F70470146B1F840007047014646
:10275000888C70470146088D704702460020138A16
:102760000B400BB1012000E000207047CA430282F9
:10277000704730B50246002000230024158A05EA80
:102780000103958905EA010413B10CB1012000E0B1
:10279000002030BDCA4302827047000010B50446D5
:1027A000FB48844209D101218803FEF719FF00216B
:1027B0004FF48040FEF714FF32E0F648844209D11E
:1027C00001214804FEF719FF00214FF40030FEF705
:1027D00014FF25E0F048844209D101218804FEF766
:1027E0000CFF00214FF48020FEF707FF18E0EB48B4
:1027F000844209D10121C804FEF7FFFE00214FF4F5
:102800000020FEF7FAFE0BE0E548844208D10121E2
:102810000805FEF7F2FE00214FF48010FEF7EDFEF2
:1028200010BD2DE9F04786B005460E460024A246AD
:1028300000BFA1460027B08900B100BF2F462C8AF7
:102840004CF6FF700440F08804432C82AC894EF6AD
:10285000F3100440B0883189084371890843044368
:10286000AC81AC8A4FF6FF400440B0890443AC828F
:1028700001A8FEF72EFEC648874202D1DDF810A05F
:1028800001E0DDF80CA0A88900F4004040B10AEB9B
:10289000CA0000EB0A1031684900B0FBF1F807E00C
:1028A0000AEBCA0000EB0A1031688900B0FBF1F8AE
:1028B0006420B8FBF0F004012009642101FB1089B9
:1028C000A88900F4004040B1322000EBC900B0FB01
:1028D000F1F000F00700044308E0322000EB09109B
:1028E0006421B0FBF1F000F00F0004432C8106B02E
:1028F000BDE8F0874FF41651016000218180C1804E
:1029000001810C21418100218181704710B502466F
:102910000020108A4FF2FF0318400B884C88234395
:102920008C882343CC8823431843108210BD002198
:10293000018041808180C180704721B1828942F449
:102940000052828104E082894DF6FF731A40828131
:102950007047F0B50346002400260025002040F60D
:102960006A17B94200D100BF1846C1F3421401F002
:102970001F06012707FA06F5012C01D10C3004E0EF
:10298000022C01D1103000E014301AB107682F4337
:10299000076002E00768AF430760F0BD1AB1838AA1
:1029A0000B43838202E0838A8B4383827047028ACF
:1029B0004FF6F0731A400282028A0A43028270477D
:1029C00082894FF2FF731A40828182890A43828191
:1029D000704721B1828942F00202828104E082893B
:1029E0004FF6FD731A4082817047028A4FF6DF73FB
:1029F0001A400282028A0A430282704721B1028A87
:102A000042F48042028204E0028A4BF6FF731A40CD
:102A100002827047C1F308028280704701468888AD
:102A2000C0F308007047818941F00101818170473E
:102A3000028BD2B20283028B42EA012202837047E8
:102A4000028B02F47F420283028B0A4302837047A7
:102A500021B1828A42F02002828204E0828A4FF60B
:102A6000DF731A408282704721B1828A42F01002DD
:102A7000828204E0828A4FF6EF731A4082827047A6
:102A800021B1828A42F00802828204E0828A4FF6F3
:102A9000F7731A408282704721B1828942F4004262
:102AA000828103E08289C2F30E028281704721B1E4
:102AB000828A42F40062828204E0828A4FF2FF73CB
:102AC0001A4082827047828A4FF6FB731A408282D4
:102AD000828A0A438282704721B1828A42F00202CE
:102AE000828204E0828A4FF6FD731A408282704728
:102AF00002460020B1F5007F00D100BF13880B40D3
:102B00000BB1012000E00020704701F40072B2F523
:102B1000007F00D100BFCA430280704770B50246F3
:102B2000002400230025002040F66A16B14200D19F
:102B300000BFC1F3421501F01F03012606FA03F39B
:102B4000012D02D19689334006E0022D02D1168A6A
:102B5000334001E0968A33400C12012606FA04F451
:102B60001688344013B10CB1012000E0002070BD84
:102B700010B50022002340F66A14A14200D100BF24
:102B80000A1201249440A3B2DC43048010BD00006B
:102B9000003801400044004000480040004C004024
:102BA0000050004010B56FF00400FDF772FE2E4893
:102BB00000682E49B0FBF1F02D49087008460078F6
:102BC00000EB4001C1EBC0104FF6FF7101EAC000FD
:102BD0002849088010BD0146254A12784A434FF023
:102BE000E0235A6100229A611A46126942F00102FA
:102BF0001A6100BF4FF0E022106900F001021AB123
:102C000000F48032002AF5D04FF0E022126922F061
:102C100001024FF0E0231A6100229A6170470146D9
:102C2000144A12884A434FF0E0235A6100229A6105
:102C30001A46126942F001021A6100BF4FF0E02209
:102C4000106900F001021AB100F48032002AF5D0B8
:102C50004FF0E022126922F001024FF0E0231A61E6
:102C600000229A61704700000000002000127A00E4
:102C7000280000202A000020014600BF704700BF46
:102C8000494A128802F04002002AF9D0C2B2464BEB
:102C90001B1D1A80704710B586B00446012144F20E
:102CA0000400FEF783FC4FF40070ADF8140003201D
:102CB0008DF8160018208DF8170005A93B48FEF77F
:102CC000B9F94FF48060ADF8140004208DF81700B6
:102CD00005A93648FEF7AEF925208DF8000003203F
:102CE0008DF801008DF8020001208DF80300684680
:102CF000FDF785FD01940020ADF80800ADF80A004D
:102D0000ADF80C00ADF810000C20ADF80E0001A9D4
:102D10002548FFF786FD012240F225512248FFF7A2
:102D200018FE01212048FFF708FE06B010BD10B5BF
:102D300040F225511C48FFF7F1FE10B31A48FFF787
:102D40006DFEC4B21A48008800F40040C8B91848A3
:102D5000008800F4804060B10A2C03D000201449A0
:102D6000088020E01248008840F4004010490880A4
:102D700019E00D2C06D10E48008840F480400C4923
:102D8000088010E00A480088C0F30D0009490C547F
:102D900007480088401C0649088008460088C72864
:102DA00001DD0020088010BD00380140000801400E
:102DB000300000201B02002000B587B001214FF435
:102DC0000170FEF7F3FB4FF40040FEF753FB0220C7
:102DD000ADF8040000208DF8070001A93348FEF784
:102DE00029F90120ADF8040000208DF8070001A9A1
:102DF0002E48FEF71FF92E48FDF76AFD00200290CD
:102E00008DF80C008DF80D004FF460200490002028
:102E1000059001208DF8180002A92548FDF77FFDD7
:102E200001212348FDF7A7FD2148FDF7C6FD00BF9E
:102E30001F48FDF7C7FD0028FAD11D48FDF7CCFD5E
:102E400000BF1B48FDF7CDFD0028FAD107B000BD3B
:102E500010B504460723012221461548FDF7F7FD6A
:102E600001211348FDF7C7FD00BF02211048FDF7FF
:102E700033FF0028F9D00E48FDF750FE10BD2DE9B4
:102E8000F04107460C460025002608E03846FFF7CB
:102E9000DFFF05440520FFF7C2FE701CC6B2A64244
:102EA000F4DBB5FBF4F080B2BDE8F081000801402E
:102EB0000024014010B56248006820F0F00060492D
:102EC00008600846006840F03000086000205D4956
:102ED00008601420FFF7A3FE01205B49C1F88401BC
:102EE0001E20FFF778FE10BD10B50024544800687E
:102EF00020F0F000524908600846006840F0800069
:102F0000086004E0601CC4B20120FFF764FE4D4875
:102F10008038006808B1642CF4DB642C01DB0120EC
:102F200010BD002404E0601CC4B20120FFF753FE72
:102F300044488038006808B9642CF4DB642C01DB59
:102F40000120EDE70020EBE710B5002404E0601C51
:102F5000C4B20120FFF73FFE3A488038006808B14C
:102F6000642CF4DB002404E0601CC4B20120FFF7F1
:102F700032FE34488038006808B9642CF4DB28201D
:102F8000FFF729FE2F488038006808B1012010BDE6
:102F90000020FCE770B50024002506E06006040E62
:102FA000FFF7D2FF0443681CC5B2082DF6DB2046AC
:102FB00070BD7CB505460E46FFF77CFFFFF794FF1A
:102FC000F8B9002405E0FFF7E5FF0DF80400601CE8
:102FD000C4B2052CF7DB9DF800009DF801100844F1
:102FE0009DF8021008449DF8031008449DF8041051
:102FF000884208D19DF8000030709DF802002870CA
:1030000001E001207CBD0020FCE708B50121102073
:10301000FEF7CCFA0220ADF8000010208DF8030076
:1030200003208DF8020069460548FEF703F80221E7
:103030000348FEF7ACF8FFF73DFFFFF755FF08BD6B
:1030400000100140840122420000224200B58BB0F2
:1030500001210846FEF79DFA0D4800900D480190A9
:103060000020029080200590002004904FF4807092
:10307000069080000790002008904FF4805009903F
:1030800000200A9069460448FDF7ECFE0BB000BD35
:103090004C240140F00100200800024008B5012145
:1030A0001420FEF783FA01212E48FEF794F84FF41E
:1030B0000040ADF8000048208DF8030069462A481A
:1030C000FDF7B8FF2020ADF8000048208DF8030080
:1030D00069462648FDF7AEFF08BD10B5044614B199
:1030E0000120234908702248007828B320211F4876
:1030F000FEF733F858B14FF400411B48FEF72DF8A6
:1031000028B101211848FEF728F8012814D10A2017
:10311000FFF785FD00201649087020211348FEF7AF
:103120001CF808B9012010BD4FF400410E48FEF70D
:1031300014F8A8B90220F6E720210C48FEF70DF894
:1031400001280DD1C1030848FEF707F8012807D16F
:1031500001210548FEF701F810B901200449087063
:103160000020E0E7000230000008014000100140AC
:103170003200002010B504464FF48071FE48FEF77F
:1031800008F84FF40071FC48FEF703F82146FB48AD
:10319000FEF706F88021F848FDF7FBFF8021F6488E
:1031A000FDF7F5FF4FF40071F348FDF7F0FF10BD98
:1031B00010B504464FF48071EF48FDF7E8FF4FF477
:1031C0000071ED48FDF7E5FF2146EC48FDF7E8FF0B
:1031D0008021E948FDF7DDFF8021E748FDF7D7FFB3
:1031E0004FF40071E448FDF7D2FF10BD10B54FF069
:1031F0008830E2490860091D08600020DF490C3171
:1032000008608915DC48FDF7C2FF4FF40071DA4809
:10321000FDF7BFFF4021D848FDF7BBFFD8488088A5
:1032200048F68911884202D10220FFF7D4FCD34826
:10323000FDF79CFF04464021CF48FDF7A8FF4FF45F
:103240000071CD48FDF7A3FF4FF03330CB49086044
:10325000091D08604FF6FF70C8490C310860204610
:1032600010BD70B504460D462046FFF783FF4FF4AE
:103270008071C148FDF78BFF4FF40071BE48FDF728
:1032800088FF2946BD48FDF78BFF8021BA48FDF72E
:1032900080FF8021B848FDF77AFF4FF40071B648EF
:1032A000FDF775FF70BD10B504462046FFF762FFBD
:1032B000FFF79CFF10BD10B5B1490889FFF75AFF11
:1032C00010BD10B504464FF48071AB48FDF75FFFA9
:1032D0004FF40071A848FDF75CFF2146A748FDF7B1
:1032E0005FFF8021A448FDF754FF8021A248FDF72D
:1032F0004EFF4FF40071A048FDF749FF10BD30B5F7
:10330000014601F01F04C1F34513CA0AE50205EBAB
:1033100043151544A8B230BD70B504460D46984813
:10332000808849F24131884205D09548808845F22D
:103330001031884275D192494889FFF71BFF4FF43D
:1033400080718D48FDF723FF4FF400718A48FDF727
:1033500020FF21128948FDF723FF80218648FDF7D1
:1033600018FF80218448FDF712FF4FF40071824856
:10337000FDF70DFF4FF480717F48FDF708FF4FF414
:1033800000717D48FDF705FFE1B27C48FDF708FFBD
:1033900080217948FDF7FDFE80217748FDF7F7FE93
:1033A0004FF400717448FDF7F2FE75498889FFF704
:1033B000E1FE4FF480717048FDF7E9FE4FF40071B3
:1033C0006D48FDF7E6FE29126C48FDF7E9FE802105
:1033D0006948FDF7DEFE80216748FDF7D8FE4FF40F
:1033E00000716548FDF7D3FE4FF480716248FDF728
:1033F000CEFE4FF400716048FDF7CBFEE9B25F48A6
:10340000FDF7CEFE80215C48FDF7C3FE80215A48BF
:10341000FDF7BDFE4FF400715748FDF7B8FE28E1F7
:10342000FFE75748808846F6040188427ED1544819
:103430008079012804D152480088401E001B84B2C4
:103440004F494889FFF796FE4FF480714A48FDF7CF
:103450009EFE4FF400714848FDF79BFE211247483D
:10346000FDF79EFE80214448FDF793FE80214248EF
:10347000FDF78DFE4FF400713F48FDF788FE4FF4D5
:1034800080713D48FDF783FE4FF400713A48FDF727
:1034900080FEE1B23948FDF783FE80213648FDF712
:1034A00078FE80213448FDF772FE4FF400713248F7
:1034B000FDF76DFE32498889FFF75CFE4FF480719D
:1034C0002D48FDF764FE4FF400712B48FDF761FEB7
:1034D00029122A48FDF764FE80212748FDF759FE8E
:1034E00080212548FDF753FE4FF400712248FDF777
:1034F0004EFE4FF480712048FDF749FE4FF40071F5
:103500001D48FDF746FEE9B21C48FDF749FE802143
:103510001948FDF73EFE80211748FDF738FE4FF4AD
:1035200000711548FDF733FEA3E0FFE714488088DB
:1035300045F2105188427CD111494889FFF71AFEA3
:103540004FF480710C48FDF722FE4FF400710A48D9
:10355000FDF71FFE21120948FDF722FE80210648D3
:10356000FDF717FE80210448FDF711FE4FF40071AE
:103570000148FDF70CFE05E000100140000C014081
:10358000E4020020F8494989491C88B2FFF7F2FD9E
:103590004FF48071F548FDF7FAFD4FF40071F348E0
:1035A000FDF7F7FDE1B2F248FDF7FAFD8021EF48A3
:1035B000FDF7EFFD8021ED48FDF7E9FD4FF40071C7
:1035C000EA48FDF7E4FDE8498889FFF7D3FD4FF4A9
:1035D0008071E648FDF7DBFD4FF40071E348FDF72D
:1035E000D8FD2912E248FDF7DBFD8021DF48FDF719
:1035F000D0FD8021DD48FDF7CAFD4FF40071DB48A6
:10360000FDF7C5FDD8498989491C88B2FFF7B2FD8D
:103610004FF48071D548FDF7BAFD4FF40071D348DF
:10362000FDF7B7FDE9B2D248FDF7BAFD8021CF48DA
:1036300000E00BE0FDF7ADFD8021CC48FDF7A7FDD4
:103640004FF40071C948FDF7A2FD12E0C648807929
:10365000012804D1C4480088401E001B84B2C2491E
:1036600048892146FFF7FDFDBF4988892946FFF7B4
:10367000F8FD70BD2DE9F04105460E46BA480088B8
:10368000A84203DDB8484088B04202DC0020BDE813
:10369000F08131462846FFF73FFEB348808849F263
:1036A000413188420BD0B048808846F604018842F8
:1036B00005D0AD48808845F21031884203D12E20D4
:1036C000FFF758FD0DE0A848808845F21051884268
:1036D00004D14FF43850FFF74DFD02E02220FFF7F0
:1036E00049FD4FF08830A2490860091D08604FF677
:1036F000FF709F490C31086089159C48FDF747FD14
:103700004FF400719948FDF744FD40219748FDF7BB
:1037100040FD0120FFF75FFA40219448FDF737FD97
:1037200040219248FDF735FD0120FFF754FA9048FB
:10373000FDF71CFD044640218C48FDF728FD8A4812
:10374000808849F2413188420BD08748808845F211
:103750001031884205D08448808845F21051884253
:1037600011D140218148FDF714FD8148FDF7FEFC91
:10377000804640217D48FDF70AFDE7B24FF6FF7015
:1037800000EA072711E07848808846F6040188425D
:103790000BD140217548FDF7FCFC40217348FDF733
:1037A000F6FC7348FDF7E2FC04464FF400716F48E5
:1037B000FDF7EDFC4FF033306D490860091D0860DE
:1037C0004FF6FF706A490C3108606748808849F2FB
:1037D0002531884216D06448808844F235518842A9
:1037E00010D061488088091F88420BD05E488088CD
:1037F00048F68911884205D05B4880884BF2055114
:10380000884201D1204642E75748808849F2413139
:1038100088420BD05448808845F21031884205D048
:103820005148808845F21051884207D1E012C00209
:10383000B91240EA411040EAE82028E72046FFF7A5
:103840005EFD24E710B54848808849F2413188423E
:103850000BD04548808846F60401884205D042488E
:10386000808845F21031884203D12920FFF782FC7D
:103870000FE03D48808845F21051884204D14FF452
:103880002450FFF777FC04E040F273110720FFF7A4
:10389000E8FC10BD10B53448808849F241318842B7
:1038A0000BD03148808846F60401884205D02E4866
:1038B000808845F21031884203D12820FFF75AFC56
:1038C0000EE02948808845F21051884204D14FF417
:1038D0002050FFF74FFC03E000210720FFF7C1FC59
:1038E00010BD2DE9F0410546002400271E488079CF
:1038F00001281ED11C48808846F60401884218D051
:10390000082D15D2DFE805F00406080A0C0E101287
:1039100006250DE007250BE0042509E0052507E055
:10392000012505E0002503E0032501E0022500BF95
:1039300000BF0D48808849F24131884211D00A48C1
:10394000808846F6040188420BD00748808845F2FB
:103950001031884205D00448808845F210518842D1
:103960007ED1082D23D205E0E402002000100140A2
:10397000000C0140DFE805F00406090C0F121518D1
:1039800000BF14E044F0800411E044F040040EE075
:1039900044F0C0040BE044F0200408E044F060046C
:1039A00005E044F0A00402E044F0E00400BF00BFE2
:1039B000FE48808845F21051884202D14FF4585792
:1039C00000E03627F948808845F21031884207D058
:1039D000F648808845F21051884201D044F008042E
:1039E000F248808846F60401884201D144F002047E
:1039F00021463846FFF735FC04F0200068B1EB485B
:103A00000088EA494988884214DAE84806884088EC
:103A1000E6490880084646800CE0E4480088E3490F
:103A20004988884206DDE14806884088DF490880E9
:103A300008464680DD48808845F2105188427CD196
:103A4000DA494889FFF796FB4FF48071D848FDF7B3
:103A50009EFB4FF40071D648FDF79BFB002100E070
:103A6000FBE1D448FDF79CFB8021D148FDF791FB99
:103A70008021CF48FDF78BFB4FF40071CC48FDF758
:103A800086FBCA494989491C88B2FFF773FB4FF48A
:103A90008071C748FDF77BFB4FF40071C448FDF708
:103AA00078FB0021C348FDF77BFB8021C048FDF770
:103AB00070FB8021BE48FDF76AFB4FF40071BC48E3
:103AC000FDF765FBB9494989891C88B2FFF752FBAC
:103AD0004FF48071B648FDF75AFB4FF40071B448BB
:103AE000FDF757FBB1480088401EC0F30F21B148D5
:103AF000FDF756FB8021AE48FDF74BFB8021AC481B
:103B0000FDF745FB4FF40071A948FDF740FBA749BD
:103B10004989C91C88B2FFF72DFB4FF48071A44876
:103B2000FDF735FB4FF40071A148FDF732FB9F48CC
:103B30000078401EC1B29F4800E098E0FDF730FBDE
:103B400080219B48FDF725FB80219948FDF71FFB4D
:103B50004FF400719648FDF71AFB94498889FFF7E6
:103B600009FB4FF480719248FDF711FB4FF400718F
:103B70008F48FDF70EFB00218E48FDF711FB8021D9
:103B80008B48FDF706FB80218948FDF700FB4FF4C9
:103B900000718748FDF7FBFA84498989491C88B27E
:103BA000FFF7E8FA4FF480718148FDF7F0FA4FF41F
:103BB00000717F48FDF7EDFA00217E48FDF7F0FA2D
:103BC00080217B48FDF7E5FA80217948FDF7DFFA8F
:103BD0004FF400717648FDF7DAFA74498989891C37
:103BE00088B2FFF7C7FA4FF480717148FDF7CFFA3A
:103BF0004FF400716E48FDF7CCFA6C484088401EC7
:103C0000C0F30F216B48FDF7CBFA80216848FDF720
:103C1000C0FA80216648FDF7BAFA4FF40071644893
:103C2000FDF7B5FA61498989C91C88B2FFF7A2FA84
:103C30004FF480715E48FDF7AAFA4FF400715C48BA
:103C4000FDF7A7FA59488078401EC1B25948FDF7E0
:103C5000A7FA80215648FDF79CFA80215448FDF7C9
:103C600096FA4FF400715248FDF791FA27E14F4957
:103C70004889FFF77FFA4FF480714D48FDF787FAC6
:103C80004FF400714A48FDF784FA00214948FDF7D6
:103C900087FA80214648FDF77CFA80214448FDF7E9
:103CA00076FA4FF400714248FDF771FA4FF48071D3
:103CB0003F48FDF76CFA4FF400713D48FDF769FA93
:103CC00000213C48FDF76CFA80213948FDF761FA84
:103CD00080213748FDF75BFA4FF400713448FDF757
:103CE00056FA4FF480713248FDF751FA4FF40071E3
:103CF0002F48FDF74EFA2D480088401EC0F30F21D3
:103D00002C48FDF74DFA80212948FDF742FA802121
:103D10002748FDF73CFA4FF400712548FDF737FAC4
:103D20004FF480712248FDF732FA4FF400712048B9
:103D3000FDF72FFA1D480078401EC1B21D48FDF75F
:103D40002FFA80211A48FDF724FA80211848FDF740
:103D50001EFA4FF400711648FDF719FA13498889C5
:103D6000FFF708FA4FF480711148FDF710FA4FF48D
:103D700000710F48FDF70DFA00210E48FDF710FA0B
:103D800080210B48FDF705FA80210948FDF7FFF96E
:103D90004FF400710648FDF7FAF94FF480710448BA
:103DA000FDF7F5F94FF40071014805E0E402002049
:103DB00000100140000C0140FDF7EBF90021FE4826
:103DC000FDF7EEF98021FD48FDF7E3F98021FB487E
:103DD000FDF7DDF94FF40071F848FDF7D8F94FF41D
:103DE0008071F648FDF7D3F94FF40071F348FDF701
:103DF000D0F9F3484088401EC0F30F21EE48FDF78C
:103E0000CFF98021ED48FDF7C4F98021EB48FDF79B
:103E1000BEF94FF40071E948FDF7B9F94FF480712C
:103E2000E648FDF7B4F94FF40071E448FDF7B1F945
:103E3000E3488078401EC1B2DF48FDF7B1F9802128
:103E4000DE48FDF7A6F98021DC48FDF7A0F94FF424
:103E50000071DA48FDF79BF931E0082D1CD2DFE84C
:103E600005F004070A0D0F12151844F0300413E092
:103E700044F0100410E044F020040DE000BF0BE01B
:103E800044F0380408E044F0280405E044F0180445
:103E900002E044F0080400BF00BFC948808848F62B
:103EA0008911884204D1112746F24000044302E000
:103EB000032744F4805421463846FFF7D2F9BDE881
:103EC000F08170B504460D4629462046FFF724FAD6
:103ED000FFF7F1F94FF48071B848FDF758F94FF446
:103EE0000071B648FDF755F9B6480188B248FDF7AC
:103EF00057F98021B148FDF74CF98021AF48FDF713
:103F000046F94FF40071AD48FDF741F970BD70B549
:103F100004460D461646AA48808849F24131884237
:103F200005D0A748808845F21031884275D1A44950
:103F30004889FFF71FF94FF48071A048FDF727F972
:103F40004FF400719D48FDF724F921129A48FDF7BE
:103F500027F980219948FDF71CF980219748FDF742
:103F600016F94FF400719548FDF711F94FF480717F
:103F70009248FDF70CF94FF400719048FDF709F9EC
:103F8000E1B28D48FDF70CF980218C48FDF701F96D
:103F900080218A48FDF7FBF84FF400718748FDF750
:103FA000F6F887498889FFF7E5F84FF48071834870
:103FB000FDF7EDF84FF400718048FDF7EAF829129B
:103FC0007D48FDF7EDF880217C48FDF7E2F880217F
:103FD0007A48FDF7DCF84FF400717848FDF7D7F820
:103FE0004FF480717548FDF7D2F84FF400717348B3
:103FF000FDF7CFF8E9B27048FDF7D2F880216F489D
:10400000FDF7C7F880216D48FDF7C1F84FF4007146
:104010006A48FDF7BCF82CE1FFE76948808845F263
:10402000105188427ED166494889FFF7A3F84FF4C2
:1040300080716248FDF7ABF84FF400715F48FDF7FF
:10404000A8F821125C48FDF7ABF880215B48FDF72A
:10405000A0F880215948FDF79AF84FF400715748AD
:10406000FDF795F856494989491C88B2FFF782F84F
:104070004FF480715148FDF78AF84FF400714F48B2
:10408000FDF787F8E1B24C48FDF78AF880214B48EC
:10409000FDF77FF880214948FDF779F84FF400716A
:1040A0004648FDF774F846498889FFF763F84FF4EE
:1040B00080714248FDF76BF84FF400713F48FDF7FF
:1040C00068F829123C48FDF76BF880213B48FDF762
:1040D00060F880213948FDF75AF84FF400713748ED
:1040E000FDF755F836498989491C88B2FFF742F82F
:1040F0004FF480713148FDF74AF84FF400712F48B2
:10410000FDF747F8E9B22C48FDF74AF880212B4823
:10411000FDF73FF880212948FDF739F84FF4007189
:10412000264800E002E0FDF732F8A2E0244880884B
:1041300046F6040188427CD121488079012804D1C7
:104140001F480088401E001B84B21D494889FFF7A4
:1041500011F84FF480711948FDF719F84FF4007108
:104160001648FDF716F821121348FDF719F88021BB
:104170001248FDF70EF880211048FDF708F84FF4BB
:1041800000710E48FDF703F84FF480710B48FCF7FF
:10419000FEFF4FF400710948FCF7FBFFE1B206484F
:1041A000FCF7FEFF80210548FCF7F3FF8021034860
:1041B000FCF7EDFF08E00000000C0140001001409A
:1041C000E4020020340000204FF40071FD48FCF7A9
:1041D000DEFFFD498889FEF7CDFF4FF48071F94875
:1041E000FCF7D5FF4FF40071F648FCF7D2FF291217
:1041F000F648FCF7D5FF8021F248FCF7CAFF802182
:10420000F048FCF7C4FF4FF40071EE48FCF7BFFF25
:104210004FF48071EB48FCF7BAFF4FF40071E948A6
:10422000FCF7B7FFE9B2E948FCF7BAFF8021E5489F
:1042300000E00BE0FCF7ADFF8021E248FCF7A7FFB0
:104240004FF40071DF48FCF7A2FF12E0DE488079EE
:10425000012804D1DC480088401E001B84B2DA49E2
:1042600048892146FEF7FDFFD74988892946FEF790
:10427000F8FF4FF48071D348FCF78BFF4FF40071C7
:10428000D048FCF786FFD0480189D048FCF788FF6A
:104290008021CC48FCF77DFF8021CA48FCF777FFDE
:1042A0004FF40071C748FCF772FF4FF48071C548A6
:1042B000FCF76DFF4FF40071C248FCF76AFF31460E
:1042C000C248FCF76DFF8021BE48FCF762FF8021E9
:1042D000BC48FCF75CFF4FF40071BA48FCF757FF8D
:1042E00070BD10B50446002C60D1B7498871F0202C
:1042F00008804FF4A07048800846808849F2413118
:1043000088420BD0B048808846F60401884205D028
:10431000AD48808845F2103188421AD12C20AA4934
:1043200008812A2048812B2088810846808846F60B
:104330000401884205D0A448808845F210318842A3
:1043400006D14FF4A070A04908804FF4F070488067
:1043500095E09D48808848F68911884207D122203F
:10436000994908814E2048814F20888187E09648EE
:10437000808845F21051884210D14FF43050924954
:1043800008814FF4285048814FF42C5088814FF415
:10439000F07008804FF44870488070E022208A490D
:1043A0000881202048812120888168E001208649F9
:1043B00088714FF4A0700880F020488008468088FB
:1043C00049F24131884205D07F48808845F210315A
:1043D000884207D12C207C4908812A2048812B2043
:1043E000888139E07848808846F60401884207D100
:1043F0002C20754908812B2048812A2088812BE0B8
:104400007148808848F68911884207D122206E4978
:1044100008814F2048814E2088811DE06A488088AD
:1044200045F21051884210D14FF43050664908814E
:104430004FF4285048814FF42C5088814FF4487035
:1044400008804FF4F070488006E022205E49088121
:1044500021204881202088815B48808846F604011D
:10446000884205D05848808845F21031884206D1EC
:104470004FF4F070544908804FF4A0704880002039
:10448000FFF72FFA10BD2DE9FF5F04460D461646D3
:104490001F46A019401E86B2E819401E87B24A483E
:1044A000808849F2413188420BD04748808845F2E4
:1044B0001031884205D04448808846F6040188427D
:1044C0007ED141494889FEF755FE4FF480713D4841
:1044D000FCF75DFE4FF400713A48FCF75AFE2112DA
:1044E0003A48FCF75DFE80213648FCF752FE8021F9
:1044F0003448FCF74CFE4FF400713248FCF747FE9D
:104500004FF480712F48FCF742FE4FF400712D48A4
:10451000FCF73FFEE1B22D48FCF742FE802129481E
:10452000FCF737FE80212748FCF731FE4FF400717D
:104530002448FCF72CFE4FF480712248FCF727FE3C
:104540004FF400711F48FCF724FE31121F48FCF79E
:1045500027FE80211B48FCF71CFE80211948FCF730
:1045600016FE4FF400711748FCF711FE4FF48071EE
:104570001448FCF70CFE4FF400711248FCF709FEDA
:10458000F1B21248FCF70CFE80210E48FCF701FE48
:1045900080210C48FCF7FBFD4FF400710948FCF743
:1045A000F6FD09498889FEF7E5FD4FF4807105485D
:1045B000FCF7EDFD4FF400710248FCF7EAFD07E05F
:1045C00069E0000000100140E4020020000C0140FE
:1045D0002912FE48FCF7E4FD8021FD48FCF7D9FDD7
:1045E0008021FB48FCF7D3FD4FF40071F848FCF73D
:1045F000CEFD4FF48071F648FCF7C9FD4FF4007111
:10460000F348FCF7C6FDE9B2F048FCF7C9FD80218C
:10461000EF48FCF7BEFD8021ED48FCF7B8FD4FF4F4
:104620000071EB48FCF7B3FD4FF48071E848FCF7EC
:10463000AEFD4FF40071E648FCF7ABFD3912E348DC
:10464000FCF7AEFD8021E248FCF7A3FD8021E048A5
:10465000FCF79DFD4FF40071DD48FCF798FD4FF429
:104660008071DB48FCF793FD4FF40071D848FCF7EC
:1046700090FDF9B2D548FCF793FD8021D448FCF7B2
:1046800088FD8021D248FCF782FD4FF40071D048AC
:10469000FCF77DFD53E1CF48808845F210518842F8
:1046A0007DD1CC494889FEF765FD4FF48071C8483B
:1046B000FCF76DFD4FF40071C548FCF76AFD21124F
:1046C000C248FCF76DFD8021C148FCF762FD8021E6
:1046D000BF48FCF75CFD4FF40071BD48FCF757FD87
:1046E000BC494989491C88B2FEF744FD4FF48071EA
:1046F000B748FCF74CFD4FF40071B548FCF749FD95
:10470000E1B2B248FCF74CFD8021B148FCF741FD15
:104710008021AF48FCF73BFD4FF40071AC48FCF73B
:1047200036FDAC494989891C88B2FEF723FD4FF458
:104730008071A748FCF72BFD4FF40071A448FCF7EB
:1047400028FD3112A148FCF72BFD8021A048FCF781
:1047500020FD80219E48FCF71AFD4FF400719C4813
:10476000FCF715FD9B494989C91C88B2FEF702FD7B
:104770004FF480719648FCF70AFD4FF4007194489D
:10478000FCF707FDF1B29148FCF70AFD8021904843
:10479000FCF7FFFC80218E48FCF7F9FC00E087E085
:1047A0004FF400718A48FCF7F2FC8A498889FEF7C9
:1047B000E1FC4FF480718648FCF7E9FC4FF400718E
:1047C0008348FCF7E6FC29128048FCF7E9FC8021CD
:1047D0007F48FCF7DEFC80217D48FCF7D8FC4FF4D5
:1047E00000717B48FCF7D3FC7A498989491C88B25F
:1047F000FEF7C0FC4FF480717548FCF7C8FC4FF41D
:1048000000717348FCF7C5FCE9B27048FCF7C8FCBE
:1048100080216F48FCF7BDFC80216D48FCF7B7FC98
:104820004FF400716A48FCF7B2FC6A498989891C17
:1048300088B2FEF79FFC4FF480716548FCF7A7FC37
:104840004FF400716248FCF7A4FC39125F48FCF792
:10485000A7FC80215E48FCF79CFC80215C48FCF7AB
:1048600096FC4FF400715A48FCF791FC594989892C
:10487000C91C88B2FEF77EFC4FF480715448FCF7E7
:1048800086FC4FF400715248FCF783FCF9B24F48A4
:10489000FCF786FC80214E48FCF77BFC80214C48CD
:1048A000FCF775FC4FF400714948FCF770FC46E0DA
:1048B0004848807901280ED1A846B9464548008865
:1048C000801B401E80B2009042480088001B401EA2
:1048D0001FFA80FB03E0A046B1460095BB463D4869
:1048E000808848F6891188420DD14FF0440A44204F
:1048F000039048EA09201FFA80F8C146452002903B
:104900004620019007E04FF0500A512003905220BA
:1049100002905320019041465046FEF7A2FC4946C2
:104920000398FEF79EFC00990298FEF79AFC594600
:104930000198FEF796FC29462046FEF7EDFCBDE8FF
:10494000FF9F70B5044600262248058840884543ED
:104950002048808846F60401884216D11D48807997
:10496000012812D100201B4988712A2048812B2060
:10497000888100210846FEF7CFFC01201549887187
:104980002B2048812A20888103E000210846FEF779
:10499000C3FCFEF790FC002622E04FF480710C4827
:1049A000FCF7F5FB4FF400710948FCF7F2FB2146D8
:1049B0000648FCF7F5FB80210548FCF7EAFB80215F
:1049C0000348FCF7E4FB4FF4007105E0000C0140E4
:1049D00000100140E4020020FE48FCF7D8FB761CE2
:1049E000AE42DAD370BD08B501211920FCF7DEFD17
:1049F0000121F948FCF7EFFB4FF4F860ADF8000037
:104A000010208DF8030003208DF802006946F1485C
:104A1000FCF710FB4FF4F861EE48FCF7B8FB4FF6DB
:104A2000FF70ADF800006946EC48FCF703FB4FF659
:104A3000FF71EA48FCF7ABFB3220FEF7F0F80121EA
:104A40000020FEF70EFC3220FEF7E9F80020FEF70A
:104A50002AFCE349888008468088FF280ADB08464C
:104A600080884FF6FF71884204D0DD488088B0F519
:104A7000134F7CD1D320FEF77DFBFEF7B7FBFEF78B
:104A8000B5FBFEF7B3FBD6498880084680884FF611
:104A9000FF7101EA0020D2498880FEF7A7FBD049C8
:104AA00089880843CE4988800846808849F2413188
:104AB00088426CD0BF20FEF75DFBFEF797FBFEF748
:104AC00095FBFEF793FBFEF791FBC54988800846EE
:104AD00080884FF6FF7101EA0020C1498880FEF707
:104AE00085FBBF4989880843BD498880084680887E
:104AF00046F6040188424AD0D420FEF73BFBFEF77D
:104B000075FBFEF773FBFEF771FBB549888008461D
:104B100080884FF6FF7101EA0020B1498880FEF7D6
:104B200065FBAF4989880843AD498880084680887D
:104B300045F2103188422AD04FF45A40FEF71AFB52
:104B4000FEF754FB4FF45B40FEF714FBFEF74EFB01
:104B5000A3498880084680884FF6FF7101EA00204B
:104B60009F4988804FF45C40FEF704FB00E00EE0B4
:104B7000FEF73CFB9A498988084399498880084692
:104B80008088B0F5004F02D145F2105088809448DB
:104B9000818894A006F080FE9148808849F24131D6
:104BA00088427CD1CF20FEF7E5FA0020FEF700FB1B
:104BB000C120FEF7FDFA3020FEF7FAFAED20FEF7ED
:104BC000D9FA6420FEF7F4FA0320FEF7F1FA122076
:104BD000FEF7EEFA8120FEF7EBFAE820FEF7CAFABC
:104BE0008520FEF7E5FA1020FEF7E2FA7A20FEF7BC
:104BF000DFFACB20FEF7BEFA3920FEF7D9FA2C20D7
:104C0000FEF7D6FA0020FEF7D3FA3420FEF7D0FAEA
:104C10000220FEF7CDFAF720FEF7ACFA2020FEF7CF
:104C2000C7FAEA20FEF7A6FA0020FEF7C1FA002034
:104C3000FEF7BEFAC020FEF79DFA1B20FEF7B8FA79
:104C4000C120FEF797FA0120FEF7B2FAC520FEF761
:104C500091FA3020FEF7ACFA3020FEF7A9FAC7200F
:104C6000FEF788FAB720FEF7A3FA3620FEF782FA9D
:104C70004820FEF79DFA3A20FEF77CFA5520FEF711
:104C800097FAB120FEF776FA0020FEF791FA1A2083
:104C9000FEF78EFAB620FEF76DFA0A2000E0A9E0D2
:104CA000FEF786FAA220FEF783FAF220FEF762FAF8
:104CB0000020FEF77DFA2620FEF75CFA0120FEF7C1
:104CC00077FAE020FEF756FA0F20FEF771FA2A2055
:104CD000FEF76EFA2820FEF76BFA0820FEF768FA56
:104CE0000E20FEF765FA0820FEF762FA5420FEF760
:104CF0005FFAA920FEF75CFA4320FEF759FA0A2072
:104D0000FEF756FA0F20FEF753FA0020FEF750FA8E
:104D10000020FEF74DFA0020FEF74AFA0020FEF7C9
:104D200047FAE120FEF726FA0020FEF741FA1520A7
:104D3000FEF73EFA1720FEF73BFA0720FEF738FA97
:104D40001120FEF735FA0620FEF732FA2B20FEF787
:104D50002FFA5620FEF72CFA3C20FEF729FA052000
:104D6000FEF726FA1020FEF723FA0F20FEF720FAAE
:104D70003F20FEF71DFA3F20FEF71AFA0F20FEF73C
:104D800017FA2B20FEF7F6F90020FEF711FA0020A3
:104D9000FEF70EFA0120FEF70BFA3F20FEF708FAA5
:104DA0002A20FEF7E7F90020FEF702FA0020FEF7BE
:104DB000FFF90020FEF7FCF9EF20FEF7F9F91120CA
:104DC000FEF7D8F97820FDF72AFF2920FEF7D2F95F
:104DD00003F00CBB0010014000023000000C014049
:104DE000E4020020204C43442049443A25780D0A2F
:104DF00000000000FE48808846F6040188427CD10D
:104E00001120FEF7B7F91420FDF709FFD020FEF7B7
:104E1000B1F90720FEF7CCF94220FEF7C9F91D20B1
:104E2000FEF7C6F9D120FEF7A5F90020FEF7C0F97C
:104E30001A20FEF7BDF90920FEF7BAF9D220FEF7D5
:104E400099F90120FEF7B4F92220FEF7B1F9C0204C
:104E5000FEF790F91020FEF7ABF93B20FEF7A8F91A
:104E60000020FEF7A5F90220FEF7A2F91120FEF7B7
:104E70009FF9C520FEF77EF90320FEF799F9C820B7
:104E8000FEF778F90020FEF793F92520FEF790F958
:104E90002120FEF78DF90520FEF78AF90020FEF7A4
:104EA00087F90A20FEF784F96520FEF781F92520AD
:104EB000FEF77EF97720FEF77BF95020FEF778F9B0
:104EC0000F20FEF775F90020FEF772F9F820FEF7C3
:104ED00051F90120FEF76CF9FE20FEF74BF9002096
:104EE000FEF766F90220FEF763F92020FEF742F98B
:104EF0003620FEF73FF9082000E02CE0FEF758F9D5
:104F00003A20FEF737F95520FEF752F92B20FEF72D
:104F100031F90020FEF74CF90020FEF749F9012095
:104F2000FEF746F93F20FEF743F92A20FEF722F963
:104F30000020FEF73DF90020FEF73AF90120FEF7C8
:104F400037F9DF20FEF734F97820FDF768FE2920D5
:104F5000FEF710F93CE7A648808845F210318842F8
:104F600040F07C87ED20FEF705F90120FEF720F9DF
:104F7000FE20FEF71DF9EE20FEF7FCF8DE20FEF71E
:104F800017F92120FEF714F9F120FEF7F3F80120BC
:104F9000FEF70EF9DF20FEF7EDF81020FEF708F916
:104FA000C420FEF7E7F88F20FEF702F9C620FEF7CF
:104FB000E1F80020FEF7FCF8E220FEF7F9F8E22025
:104FC000FEF7F6F8E220FEF7F3F8BF20FEF7D2F87E
:104FD000AA20FEF7EDF8B020FEF7CCF80D20FEF782
:104FE000E7F80020FEF7E4F80D20FEF7E1F80020D6
:104FF000FEF7DEF81120FEF7DBF80020FEF7D8F808
:105000001920FEF7D5F80020FEF7D2F82120FEF790
:10501000CFF80020FEF7CCF82D20FEF7C9F80020CD
:10502000FEF7C6F83D20FEF7C3F80020FEF7C0F8F3
:105030005D20FEF7BDF80020FEF7BAF85D20FEF710
:10504000B7F80020FEF7B4F8B120FEF793F88020FF
:10505000FEF7AEF80020FEF7ABF88B20FEF7A8F8BD
:105060000020FEF7A5F89620FEF7A2F80020FEF734
:105070009FF8B220FEF77EF80020FEF799F8002096
:10508000FEF796F80220FEF793F80020FEF790F85E
:105090000320FEF78DF80020FEF78AF8B320FEF714
:1050A00069F80020FEF784F80020FEF781F8002060
:1050B000FEF77EF80020FEF77BF80020FEF778F878
:1050C0000020FEF775F80020FEF772F80020FEF7CA
:1050D0006FF80020FEF76CF80020FEF769F800205A
:1050E000FEF766F80020FEF763F80020FEF760F890
:1050F0000020FEF75DF80020FEF75AF80020FEF7CA
:1051000057F80020FEF754F80020FEF751F8002071
:10511000FEF74EF80020FEF74BF80020FEF748F8A7
:105120000020FEF745F80020FEF742F80020FEF7C9
:105130003FF8B420FEF71EF88B20FEF739F8002068
:10514000FEF736F89620FEF733F80020FEF730F829
:10515000A120FEF72DF80020FEF72AF8B520FEF773
:1051600009F80220FEF724F80020FEF721F80320BA
:10517000FEF71EF80020FEF71BF80420FEF718F8D3
:105180000020FEF715F8B620FDF7F4FF0020FEF72B
:105190000FF80020FEF70CF8B720FDF7EBFF00201A
:1051A000FEF706F80020FEF703F83F20FEF700F8B0
:1051B0000020FDF7FDFF5E20FDF7FAFF0020FDF760
:1051C000F7FF6420FDF7F4FF0020FDF7F1FF8C20CE
:1051D000FDF7EEFF0020FDF7EBFFAC20FDF7E8FF49
:1051E0000020FDF7E5FFDC20FDF7E2FF002001E0F5
:1051F000E4020020FDF7DCFF7020FDF7D9FF00205E
:10520000FDF7D6FF9020FDF7D3FF0020FDF7D0FF7C
:10521000EB20FDF7CDFF0020FDF7CAFFDC20FDF7F6
:10522000C7FF0020FDF7C4FFB820FDF7A3FF002053
:10523000FDF7BEFF0020FDF7BBFF0020FDF7B8FF24
:105240000020FDF7B5FF0020FDF7B2FF0020FDF7BD
:10525000AFFF0020FDF7ACFF0020FDF7A9FFBA204B
:10526000FDF788FF2420FDF7A3FF0020FDF7A0FF36
:105270000020FDF79DFF0020FDF79AFFC120FDF7FC
:1052800079FF2020FDF794FF0020FDF791FF5420C7
:10529000FDF78EFF0020FDF78BFFFF20FDF788FF55
:1052A0000020FDF785FFC220FDF764FF0A20FDF70F
:1052B0007FFF0020FDF77CFF0420FDF779FF002031
:1052C000FDF776FFC320FDF755FF3C20FDF770FF8B
:1052D0000020FDF76DFF3A20FDF76AFF0020FDF783
:1052E00067FF3920FDF764FF0020FDF761FF3720DD
:1052F000FDF75EFF0020FDF75BFF3C20FDF758FF48
:105300000020FDF755FF3620FDF752FF0020FDF786
:105310004FFF3220FDF74CFF0020FDF749FF2F2003
:10532000FDF746FF0020FDF743FF2C20FDF740FF6F
:105330000020FDF73DFF2920FDF73AFF0020FDF793
:1053400037FF2620FDF734FF0020FDF731FF242032
:10535000FDF72EFF0020FDF72BFF2420FDF728FF8F
:105360000020FDF725FF2320FDF722FF0020FDF799
:105370001FFF3C20FDF71CFF0020FDF719FF362022
:10538000FDF716FF0020FDF713FF3220FDF710FF99
:105390000020FDF70DFF2F20FDF70AFF0020FDF78D
:1053A00007FF2C20FDF704FF0020FDF701FF292057
:1053B000FDF7FEFE0020FDF7FBFE2620FDF7F8FEC0
:1053C0000020FDF7F5FE2420FDF7F2FE0020FDF79A
:1053D000EFFE2420FDF7ECFE0020FDF7E9FE232080
:1053E000FDF7E6FE0020FDF7E3FEC420FDF7C2FE58
:1053F0006220FDF7DDFE0020FDF7DAFE0520FDF757
:10540000D7FE0020FDF7D4FE8420FDF7D1FE00205A
:10541000FDF7CEFEF020FDF7CBFE0020FDF7C8FE25
:105420001820FDF7C5FE0020FDF7C2FEA420FDF701
:10543000BFFE0020FDF7BCFE1820FDF7B9FE0020DE
:10544000FDF7B6FE5020FDF7B3FE0020FDF7B0FEDD
:105450000C20FDF7ADFE0020FDF7AAFE1720FDF79A
:10546000A7FE0020FDF7A4FE9520FDF7A1FE002079
:10547000FDF79EFEF320FDF79BFE0020FDF798FE52
:10548000E620FDF795FE0020FDF792FEC520FDF712
:1054900071FE3220FDF78CFE0020FDF789FE4420CE
:1054A000FDF786FE0020FDF783FE6520FDF780FEF8
:1054B0000020FDF77DFE7620FDF77AFE0020FDF747
:1054C00077FE8820FDF774FE0020FDF771FEC620F0
:1054D000FDF750FE2020FDF76BFE0020FDF768FE73
:1054E0001720FDF765FE0020FDF762FE0120FDF7A5
:1054F0005FFE0020FDF75CFEC720FDF73BFE0020AD
:10550000FDF756FE0020FDF753FE0020FDF750FE8C
:105510000020FDF74DFEC820FDF72CFE0020FDF712
:1055200047FE0020FDF744FE0020FDF741FE00206D
:10553000FDF73EFEC920FDF71DFE0020FDF738FEF9
:105540000020FDF735FE0020FDF732FE0020FDF7BC
:105550002FFE0020FDF72CFE0020FDF729FE002085
:10556000FDF726FE0020FDF723FE0020FDF720FEBC
:105570000020FDF71DFE0020FDF71AFE0020FDF7BC
:1055800017FE0020FDF714FE0020FDF711FE00209D
:10559000FDF70EFE0020FDF70BFEE020FDF7EAFD13
:1055A0001620FDF705FE0020FDF702FE1C20FDF78A
:1055B000FFFD0020FDF7FCFD2120FDF7F9FD002097
:1055C000FDF7F6FD3620FDF7F3FD0020FDF7F0FDB9
:1055D0004620FDF7EDFD0020FDF7EAFD5220FDF726
:1055E000E7FD0020FDF7E4FD6420FDF7E1FD00206C
:1055F000FDF7DEFD7A20FDF7DBFD0020FDF7D8FD8D
:105600008B20FDF7D5FD0020FDF7D2FD9920FDF799
:10561000CFFD0020FDF7CCFDA820FDF7C9FD00203F
:10562000FDF7C6FDB920FDF7C3FD0020FDF7C0FD65
:10563000C420FDF7BDFD0020FDF7BAFDCA20FDF72F
:10564000B7FD0020FDF7B4FDD220FDF7B1FD00202D
:10565000FDF7AEFDD920FDF7ABFD0020FDF7A8FD5D
:10566000E020FDF7A5FD0020FDF7A2FDF320FDF7EA
:105670009FFD0020FDF79CFDE120FDF77BFD16203E
:10568000FDF796FD0020FDF793FD1C20FDF790FD32
:105690000020FDF78DFD2220FDF78AFD0020FDF79B
:1056A00087FD3620FDF784FD0020FDF781FD4520B4
:1056B000FDF77EFD0020FDF77BFD5220FDF778FD14
:1056C0000020FDF775FD6420FDF772FD0020FDF759
:1056D0006FFD7A20FDF76CFD0020FDF769FD8B2042
:1056E000FDF766FD0020FDF763FD9920FDF760FDE5
:1056F0000020FDF75DFDA820FDF75AFD0020FDF715
:1057000057FDB920FDF754FD0020FDF751FDC420E1
:10571000FDF74EFD0020FDF74BFDCA20FDF748FDCB
:105720000020FDF745FDD220FDF742FD0020FDF7EA
:105730003FFDD820FDF73CFD0020FDF739FDE020BE
:10574000FDF736FD0020FDF733FDF320FDF730FDBA
:105750000020FDF72DFDE220FDF70CFD0520FDF7F3
:1057600027FD0020FDF724FD0B20FDF721FD002083
:10577000FDF71EFD1B20FDF71BFD0020FDF718FDAA
:105780003420FDF715FD0020FDF712FD4420FDF744
:105790000FFD0020FDF70CFD4F20FDF709FD002057
:1057A000FDF706FD6120FDF703FD0020FDF700FD7C
:1057B0007920FDF7FDFC0020FDF7FAFC8820FDF7BD
:1057C000F7FC0020FDF7F4FC9720FDF7F1FC00202A
:1057D000FDF7EEFCA620FDF7EBFC0020FDF7E8FC52
:1057E000B720FDF7E5FC0020FDF7E2FCC220FDF745
:1057F000DFFC0020FDF7DCFCC720FDF7D9FC002012
:10580000FDF7D6FCD120FDF7D3FC0020FDF7D0FC3E
:10581000D620FDF7CDFC0020FDF7CAFCDD20FDF70A
:10582000C7FC0020FDF7C4FCF320FDF7C1FC0020FD
:10583000FDF7BEFCE320FDF79DFC0520FDF7B8FC5D
:105840000020FDF7B5FC0A20FDF7B2FC0020FDF7B3
:10585000AFFC1C20FDF7ACFC0020FDF7A9FC3320B9
:10586000FDF7A6FC0020FDF7A3FC4420FDF7A0FCFB
:105870000020FDF79DFC5020FDF79AFC0020FDF76D
:1058800097FC6220FDF794FC0020FDF791FC782046
:10589000FDF78EFC0020FDF78BFC8820FDF788FCCF
:1058A0000020FDF785FC9720FDF782FC0020FDF726
:1058B0007FFCA620FDF77CFC0020FDF779FCB720DB
:1058C000FDF776FC0020FDF773FCC220FDF770FCAD
:1058D0000020FDF76DFCC720FDF76AFC0020FDF7F6
:1058E00067FCD120FDF764FC0020FDF761FCD520AA
:1058F000FDF75EFC0020FDF75BFCDD20FDF758FCAA
:105900000020FDF755FCF320FDF752FC0020FDF7C9
:105910004FFCE420FDF72EFC0120FDF749FC0020A0
:10592000FDF746FC0120FDF743FC0020FDF740FC9D
:105930000220FDF73DFC0020FDF73AFC2A20FDF790
:1059400037FC0020FDF734FC3C20FDF731FC002043
:10595000FDF72EFC4B20FDF72BFC0020FDF728FC6B
:105960005D20FDF725FC0020FDF722FC7420FDF7EB
:105970001FFC0020FDF71CFC8420FDF719FC002013
:10598000FDF716FC9320FDF713FC0020FDF710FC3B
:10599000A220FDF70DFC0020FDF70AFCB320FDF767
:1059A00007FC0020FDF704FCBE20FDF701FC0020F1
:1059B000FDF7FEFBC420FDF7FBFB0020FDF7F8FB25
:1059C000CD20FDF7F5FB0020FDF7F2FBD320FDF71E
:1059D000EFFB0020FDF7ECFBDD20FDF7E9FB0020ED
:1059E000FDF7E6FBF320FDF7E3FB0020FDF7E0FB0E
:1059F000E520FDF7BFFB0020FDF7DAFB0020FDF7F7
:105A0000D7FB0020FDF7D4FB0020FDF7D1FB0220DF
:105A1000FDF7CEFB0020FDF7CBFB2920FDF7C8FBEF
:105A20000020FDF7C5FB3C20FDF7C2FB0020FDF781
:105A3000BFFB4B20FDF7BCFB0020FDF7B9FB5D2051
:105A4000FDF7B6FB0020FDF7B3FB7420FDF7B0FBBC
:105A50000020FDF7ADFB8420FDF7AAFB0020FDF739
:105A6000A7FB9320FDF7A4FB0020FDF7A1FBA220DC
:105A7000FDF79EFB0020FDF79BFBB320FDF798FB95
:105A80000020FDF795FBBE20FDF792FB0020FDF7FF
:105A90008FFBC420FDF78CFB0020FDF789FBCD2098
:105AA000FDF786FB0020FDF783FBD320FDF780FB8D
:105AB0000020FDF77DFBDC20FDF77AFB0020FDF7E1
:105AC00077FBF320FDF774FB0020FDF771FBE62068
:105AD000FDF750FB1120FDF76BFB0020FDF768FB85
